{
  "contractName": "NFTERC721",
  "abi": [
    {
      "inputs": [],
      "stateMutability": "nonpayable",
      "type": "constructor"
    },
    {
      "anonymous": false,
      "inputs": [
        {
          "indexed": true,
          "internalType": "address",
          "name": "owner",
          "type": "address"
        },
        {
          "indexed": true,
          "internalType": "address",
          "name": "approved",
          "type": "address"
        },
        {
          "indexed": true,
          "internalType": "uint256",
          "name": "tokenId",
          "type": "uint256"
        }
      ],
      "name": "Approval",
      "type": "event"
    },
    {
      "anonymous": false,
      "inputs": [
        {
          "indexed": true,
          "internalType": "address",
          "name": "owner",
          "type": "address"
        },
        {
          "indexed": true,
          "internalType": "address",
          "name": "operator",
          "type": "address"
        },
        {
          "indexed": false,
          "internalType": "bool",
          "name": "approved",
          "type": "bool"
        }
      ],
      "name": "ApprovalForAll",
      "type": "event"
    },
    {
      "anonymous": false,
      "inputs": [
        {
          "indexed": true,
          "internalType": "address",
          "name": "previousOwner",
          "type": "address"
        },
        {
          "indexed": true,
          "internalType": "address",
          "name": "newOwner",
          "type": "address"
        }
      ],
      "name": "OwnershipTransferred",
      "type": "event"
    },
    {
      "anonymous": false,
      "inputs": [
        {
          "indexed": true,
          "internalType": "address",
          "name": "from",
          "type": "address"
        },
        {
          "indexed": true,
          "internalType": "address",
          "name": "to",
          "type": "address"
        },
        {
          "indexed": true,
          "internalType": "uint256",
          "name": "tokenId",
          "type": "uint256"
        }
      ],
      "name": "Transfer",
      "type": "event"
    },
    {
      "inputs": [
        {
          "internalType": "address",
          "name": "to",
          "type": "address"
        },
        {
          "internalType": "uint256",
          "name": "tokenId",
          "type": "uint256"
        }
      ],
      "name": "approve",
      "outputs": [],
      "stateMutability": "nonpayable",
      "type": "function"
    },
    {
      "inputs": [
        {
          "internalType": "address",
          "name": "owner",
          "type": "address"
        }
      ],
      "name": "balanceOf",
      "outputs": [
        {
          "internalType": "uint256",
          "name": "",
          "type": "uint256"
        }
      ],
      "stateMutability": "view",
      "type": "function",
      "constant": true
    },
    {
      "inputs": [
        {
          "internalType": "uint256",
          "name": "tokenId",
          "type": "uint256"
        }
      ],
      "name": "getApproved",
      "outputs": [
        {
          "internalType": "address",
          "name": "",
          "type": "address"
        }
      ],
      "stateMutability": "view",
      "type": "function",
      "constant": true
    },
    {
      "inputs": [
        {
          "internalType": "address",
          "name": "owner",
          "type": "address"
        },
        {
          "internalType": "address",
          "name": "operator",
          "type": "address"
        }
      ],
      "name": "isApprovedForAll",
      "outputs": [
        {
          "internalType": "bool",
          "name": "",
          "type": "bool"
        }
      ],
      "stateMutability": "view",
      "type": "function",
      "constant": true
    },
    {
      "inputs": [],
      "name": "name",
      "outputs": [
        {
          "internalType": "string",
          "name": "",
          "type": "string"
        }
      ],
      "stateMutability": "view",
      "type": "function",
      "constant": true
    },
    {
      "inputs": [],
      "name": "owner",
      "outputs": [
        {
          "internalType": "address",
          "name": "",
          "type": "address"
        }
      ],
      "stateMutability": "view",
      "type": "function",
      "constant": true
    },
    {
      "inputs": [
        {
          "internalType": "uint256",
          "name": "tokenId",
          "type": "uint256"
        }
      ],
      "name": "ownerOf",
      "outputs": [
        {
          "internalType": "address",
          "name": "",
          "type": "address"
        }
      ],
      "stateMutability": "view",
      "type": "function",
      "constant": true
    },
    {
      "inputs": [],
      "name": "renounceOwnership",
      "outputs": [],
      "stateMutability": "nonpayable",
      "type": "function"
    },
    {
      "inputs": [
        {
          "internalType": "address",
          "name": "from",
          "type": "address"
        },
        {
          "internalType": "address",
          "name": "to",
          "type": "address"
        },
        {
          "internalType": "uint256",
          "name": "tokenId",
          "type": "uint256"
        }
      ],
      "name": "safeTransferFrom",
      "outputs": [],
      "stateMutability": "nonpayable",
      "type": "function"
    },
    {
      "inputs": [
        {
          "internalType": "address",
          "name": "from",
          "type": "address"
        },
        {
          "internalType": "address",
          "name": "to",
          "type": "address"
        },
        {
          "internalType": "uint256",
          "name": "tokenId",
          "type": "uint256"
        },
        {
          "internalType": "bytes",
          "name": "_data",
          "type": "bytes"
        }
      ],
      "name": "safeTransferFrom",
      "outputs": [],
      "stateMutability": "nonpayable",
      "type": "function"
    },
    {
      "inputs": [
        {
          "internalType": "address",
          "name": "operator",
          "type": "address"
        },
        {
          "internalType": "bool",
          "name": "approved",
          "type": "bool"
        }
      ],
      "name": "setApprovalForAll",
      "outputs": [],
      "stateMutability": "nonpayable",
      "type": "function"
    },
    {
      "inputs": [
        {
          "internalType": "bytes4",
          "name": "interfaceId",
          "type": "bytes4"
        }
      ],
      "name": "supportsInterface",
      "outputs": [
        {
          "internalType": "bool",
          "name": "",
          "type": "bool"
        }
      ],
      "stateMutability": "view",
      "type": "function",
      "constant": true
    },
    {
      "inputs": [],
      "name": "symbol",
      "outputs": [
        {
          "internalType": "string",
          "name": "",
          "type": "string"
        }
      ],
      "stateMutability": "view",
      "type": "function",
      "constant": true
    },
    {
      "inputs": [
        {
          "internalType": "address",
          "name": "from",
          "type": "address"
        },
        {
          "internalType": "address",
          "name": "to",
          "type": "address"
        },
        {
          "internalType": "uint256",
          "name": "tokenId",
          "type": "uint256"
        }
      ],
      "name": "transferFrom",
      "outputs": [],
      "stateMutability": "nonpayable",
      "type": "function"
    },
    {
      "inputs": [
        {
          "internalType": "address",
          "name": "newOwner",
          "type": "address"
        }
      ],
      "name": "transferOwnership",
      "outputs": [],
      "stateMutability": "nonpayable",
      "type": "function"
    },
    {
      "inputs": [
        {
          "internalType": "uint256",
          "name": "tokenId",
          "type": "uint256"
        }
      ],
      "name": "tokenURI",
      "outputs": [
        {
          "internalType": "string",
          "name": "",
          "type": "string"
        }
      ],
      "stateMutability": "view",
      "type": "function",
      "constant": true
    },
    {
      "inputs": [],
      "name": "mintNFT",
      "outputs": [],
      "stateMutability": "nonpayable",
      "type": "function"
    },
    {
      "inputs": [],
      "name": "totalSupply",
      "outputs": [
        {
          "internalType": "uint256",
          "name": "",
          "type": "uint256"
        }
      ],
      "stateMutability": "view",
      "type": "function",
      "constant": true
    },
    {
      "inputs": [
        {
          "internalType": "address",
          "name": "_owner",
          "type": "address"
        }
      ],
      "name": "tokensOfOwner",
      "outputs": [
        {
          "internalType": "uint256[]",
          "name": "",
          "type": "uint256[]"
        }
      ],
      "stateMutability": "view",
      "type": "function",
      "constant": true
    }
  ],
  "bytecode": "0x60806040523480156200001157600080fd5b506040518060400160405280600281526020017f51340000000000000000000000000000000000000000000000000000000000008152506040518060400160405280600281526020017f2451000000000000000000000000000000000000000000000000000000000000815250816000908051906020019062000096929190620001d8565b508060019080519060200190620000af929190620001d8565b505050620000d2620000c66200010a60201b60201c565b6200011260201b60201c565b6040518060600160405280602c815260200162003102602c9139600a908051906020019062000103929190620001d8565b50620002ed565b600033905090565b6000600660009054906101000a900473ffffffffffffffffffffffffffffffffffffffff16905081600660006101000a81548173ffffffffffffffffffffffffffffffffffffffff021916908373ffffffffffffffffffffffffffffffffffffffff1602179055508173ffffffffffffffffffffffffffffffffffffffff168173ffffffffffffffffffffffffffffffffffffffff167f8be0079c531659141344cd1fd0a4f28419497f9722a3daafe3b4186f6b6457e060405160405180910390a35050565b828054620001e69062000288565b90600052602060002090601f0160209004810192826200020a576000855562000256565b82601f106200022557805160ff191683800117855562000256565b8280016001018555821562000256579182015b828111156200025557825182559160200191906001019062000238565b5b50905062000265919062000269565b5090565b5b80821115620002845760008160009055506001016200026a565b5090565b60006002820490506001821680620002a157607f821691505b60208210811415620002b857620002b7620002be565b5b50919050565b7f4e487b7100000000000000000000000000000000000000000000000000000000600052602260045260246000fd5b612e0580620002fd6000396000f3fe608060405234801561001057600080fd5b50600436106101215760003560e01c806370a08231116100ad578063a22cb46511610071578063a22cb465146102f6578063b88d4fde14610312578063c87b56dd1461032e578063e985e9c51461035e578063f2fde38b1461038e57610121565b806370a0823114610250578063715018a6146102805780638462151c1461028a5780638da5cb5b146102ba57806395d89b41146102d857610121565b806314f710fe116100f457806314f710fe146101c057806318160ddd146101ca57806323b872dd146101e857806342842e0e146102045780636352211e1461022057610121565b806301ffc9a71461012657806306fdde0314610156578063081812fc14610174578063095ea7b3146101a4575b600080fd5b610140600480360381019061013b9190611eaf565b6103aa565b60405161014d9190612734565b60405180910390f35b61015e61048c565b60405161016b919061274f565b60405180910390f35b61018e60048036038101906101899190611f01565b61051e565b60405161019b91906126ab565b60405180910390f35b6101be60048036038101906101b99190611e73565b6105a3565b005b6101c86106bb565b005b6101d26107c0565b6040516101df9190612991565b60405180910390f35b61020260048036038101906101fd9190611d6d565b6107d1565b005b61021e60048036038101906102199190611d6d565b610831565b005b61023a60048036038101906102359190611f01565b610851565b60405161024791906126ab565b60405180910390f35b61026a60048036038101906102659190611d08565b610903565b6040516102779190612991565b60405180910390f35b6102886109bb565b005b6102a4600480360381019061029f9190611d08565b610a43565b6040516102b19190612712565b60405180910390f35b6102c2610ada565b6040516102cf91906126ab565b60405180910390f35b6102e0610b04565b6040516102ed919061274f565b60405180910390f35b610310600480360381019061030b9190611e37565b610b96565b005b61032c60048036038101906103279190611dbc565b610d17565b005b61034860048036038101906103439190611f01565b610d79565b604051610355919061274f565b60405180910390f35b61037860048036038101906103739190611d31565b610ed8565b6040516103859190612734565b60405180910390f35b6103a860048036038101906103a39190611d08565b610f6c565b005b60007f80ac58cd000000000000000000000000000000000000000000000000000000007bffffffffffffffffffffffffffffffffffffffffffffffffffffffff1916827bffffffffffffffffffffffffffffffffffffffffffffffffffffffff1916148061047557507f5b5e139f000000000000000000000000000000000000000000000000000000007bffffffffffffffffffffffffffffffffffffffffffffffffffffffff1916827bffffffffffffffffffffffffffffffffffffffffffffffffffffffff1916145b80610485575061048482611064565b5b9050919050565b60606000805461049b90612bfa565b80601f01602080910402602001604051908101604052809291908181526020018280546104c790612bfa565b80156105145780601f106104e957610100808354040283529160200191610514565b820191906000526020600020905b8154815290600101906020018083116104f757829003601f168201915b5050505050905090565b6000610529826110ce565b610568576040517f08c379a000000000000000000000000000000000000000000000000000000000815260040161055f906128d1565b60405180910390fd5b6004600083815260200190815260200160002060009054906101000a900473ffffffffffffffffffffffffffffffffffffffff169050919050565b60006105ae82610851565b90508073ffffffffffffffffffffffffffffffffffffffff168373ffffffffffffffffffffffffffffffffffffffff16141561061f576040517f08c379a000000000000000000000000000000000000000000000000000000000815260040161061690612931565b60405180910390fd5b8073ffffffffffffffffffffffffffffffffffffffff1661063e61113a565b73ffffffffffffffffffffffffffffffffffffffff16148061066d575061066c8161066761113a565b610ed8565b5b6106ac576040517f08c379a00000000000000000000000000000000000000000000000000000000081526004016106a390612851565b60405180910390fd5b6106b68383611142565b505050565b600073ffffffffffffffffffffffffffffffffffffffff163373ffffffffffffffffffffffffffffffffffffffff16141561072b576040517f08c379a000000000000000000000000000000000000000000000000000000000815260040161072290612971565b60405180910390fd5b600061073760076111fb565b90506107433382611209565b61074c81610d79565b50600960003373ffffffffffffffffffffffffffffffffffffffff1673ffffffffffffffffffffffffffffffffffffffff1681526020019081526020016000208190806001815401808255809150506001900390600052602060002001600090919091909150556107bd60076113d7565b50565b60006107cc60076111fb565b905090565b6107e26107dc61113a565b826113ed565b610821576040517f08c379a000000000000000000000000000000000000000000000000000000000815260040161081890612951565b60405180910390fd5b61082c8383836114cb565b505050565b61084c83838360405180602001604052806000815250610d17565b505050565b6000806002600084815260200190815260200160002060009054906101000a900473ffffffffffffffffffffffffffffffffffffffff169050600073ffffffffffffffffffffffffffffffffffffffff168173ffffffffffffffffffffffffffffffffffffffff1614156108fa576040517f08c379a00000000000000000000000000000000000000000000000000000000081526004016108f190612891565b60405180910390fd5b80915050919050565b60008073ffffffffffffffffffffffffffffffffffffffff168273ffffffffffffffffffffffffffffffffffffffff161415610974576040517f08c379a000000000000000000000000000000000000000000000000000000000815260040161096b90612871565b60405180910390fd5b600360008373ffffffffffffffffffffffffffffffffffffffff1673ffffffffffffffffffffffffffffffffffffffff168152602001908152602001600020549050919050565b6109c361113a565b73ffffffffffffffffffffffffffffffffffffffff166109e1610ada565b73ffffffffffffffffffffffffffffffffffffffff1614610a37576040517f08c379a0000000000000000000000000000000000000000000000000000000008152600401610a2e906128f1565b60405180910390fd5b610a416000611727565b565b6060600960008373ffffffffffffffffffffffffffffffffffffffff1673ffffffffffffffffffffffffffffffffffffffff168152602001908152602001600020805480602002602001604051908101604052809291908181526020018280548015610ace57602002820191906000526020600020905b815481526020019060010190808311610aba575b50505050509050919050565b6000600660009054906101000a900473ffffffffffffffffffffffffffffffffffffffff16905090565b606060018054610b1390612bfa565b80601f0160208091040260200160405190810160405280929190818152602001828054610b3f90612bfa565b8015610b8c5780601f10610b6157610100808354040283529160200191610b8c565b820191906000526020600020905b815481529060010190602001808311610b6f57829003601f168201915b5050505050905090565b610b9e61113a565b73ffffffffffffffffffffffffffffffffffffffff168273ffffffffffffffffffffffffffffffffffffffff161415610c0c576040517f08c379a0000000000000000000000000000000000000000000000000000000008152600401610c0390612811565b60405180910390fd5b8060056000610c1961113a565b73ffffffffffffffffffffffffffffffffffffffff1673ffffffffffffffffffffffffffffffffffffffff16815260200190815260200160002060008473ffffffffffffffffffffffffffffffffffffffff1673ffffffffffffffffffffffffffffffffffffffff16815260200190815260200160002060006101000a81548160ff0219169083151502179055508173ffffffffffffffffffffffffffffffffffffffff16610cc661113a565b73ffffffffffffffffffffffffffffffffffffffff167f17307eab39ab6107e8899845ad3d59bd9653f200f220920489ca2b5937696c3183604051610d0b9190612734565b60405180910390a35050565b610d28610d2261113a565b836113ed565b610d67576040517f08c379a0000000000000000000000000000000000000000000000000000000008152600401610d5e90612951565b60405180910390fd5b610d73848484846117ed565b50505050565b6060610d84826110ce565b610dc3576040517f08c379a0000000000000000000000000000000000000000000000000000000008152600401610dba90612771565b60405180910390fd5b6000600860008481526020019081526020016000208054610de390612bfa565b80601f0160208091040260200160405190810160405280929190818152602001828054610e0f90612bfa565b8015610e5c5780601f10610e3157610100808354040283529160200191610e5c565b820191906000526020600020905b815481529060010190602001808311610e3f57829003601f168201915b505050505090506000610e6d611849565b9050600082511115610ea4578082604051602001610e8c929190612687565b60405160208183030381529060405292505050610ed3565b80610eae856118db565b604051602001610ebf929190612687565b604051602081830303815290604052925050505b919050565b6000600560008473ffffffffffffffffffffffffffffffffffffffff1673ffffffffffffffffffffffffffffffffffffffff16815260200190815260200160002060008373ffffffffffffffffffffffffffffffffffffffff1673ffffffffffffffffffffffffffffffffffffffff16815260200190815260200160002060009054906101000a900460ff16905092915050565b610f7461113a565b73ffffffffffffffffffffffffffffffffffffffff16610f92610ada565b73ffffffffffffffffffffffffffffffffffffffff1614610fe8576040517f08c379a0000000000000000000000000000000000000000000000000000000008152600401610fdf906128f1565b60405180910390fd5b600073ffffffffffffffffffffffffffffffffffffffff168173ffffffffffffffffffffffffffffffffffffffff161415611058576040517f08c379a000000000000000000000000000000000000000000000000000000000815260040161104f906127b1565b60405180910390fd5b61106181611727565b50565b60007f01ffc9a7000000000000000000000000000000000000000000000000000000007bffffffffffffffffffffffffffffffffffffffffffffffffffffffff1916827bffffffffffffffffffffffffffffffffffffffffffffffffffffffff1916149050919050565b60008073ffffffffffffffffffffffffffffffffffffffff166002600084815260200190815260200160002060009054906101000a900473ffffffffffffffffffffffffffffffffffffffff1673ffffffffffffffffffffffffffffffffffffffff1614159050919050565b600033905090565b816004600083815260200190815260200160002060006101000a81548173ffffffffffffffffffffffffffffffffffffffff021916908373ffffffffffffffffffffffffffffffffffffffff160217905550808273ffffffffffffffffffffffffffffffffffffffff166111b583610851565b73ffffffffffffffffffffffffffffffffffffffff167f8c5be1e5ebec7d5bd14f71427d1e84f3dd0314c0f7b2291e5b200ac8c7c3b92560405160405180910390a45050565b600081600001549050919050565b600073ffffffffffffffffffffffffffffffffffffffff168273ffffffffffffffffffffffffffffffffffffffff161415611279576040517f08c379a0000000000000000000000000000000000000000000000000000000008152600401611270906128b1565b60405180910390fd5b611282816110ce565b156112c2576040517f08c379a00000000000000000000000000000000000000000000000000000000081526004016112b9906127d1565b60405180910390fd5b6112ce60008383611a88565b6001600360008473ffffffffffffffffffffffffffffffffffffffff1673ffffffffffffffffffffffffffffffffffffffff168152602001908152602001600020600082825461131e9190612a89565b92505081905550816002600083815260200190815260200160002060006101000a81548173ffffffffffffffffffffffffffffffffffffffff021916908373ffffffffffffffffffffffffffffffffffffffff160217905550808273ffffffffffffffffffffffffffffffffffffffff16600073ffffffffffffffffffffffffffffffffffffffff167fddf252ad1be2c89b69c2b068fc378daa952ba7f163c4a11628f55a4df523b3ef60405160405180910390a45050565b6001816000016000828254019250508190555050565b60006113f8826110ce565b611437576040517f08c379a000000000000000000000000000000000000000000000000000000000815260040161142e90612831565b60405180910390fd5b600061144283610851565b90508073ffffffffffffffffffffffffffffffffffffffff168473ffffffffffffffffffffffffffffffffffffffff1614806114b157508373ffffffffffffffffffffffffffffffffffffffff166114998461051e565b73ffffffffffffffffffffffffffffffffffffffff16145b806114c257506114c18185610ed8565b5b91505092915050565b8273ffffffffffffffffffffffffffffffffffffffff166114eb82610851565b73ffffffffffffffffffffffffffffffffffffffff1614611541576040517f08c379a000000000000000000000000000000000000000000000000000000000815260040161153890612911565b60405180910390fd5b600073ffffffffffffffffffffffffffffffffffffffff168273ffffffffffffffffffffffffffffffffffffffff1614156115b1576040517f08c379a00000000000000000000000000000000000000000000000000000000081526004016115a8906127f1565b60405180910390fd5b6115bc838383611a88565b6115c7600082611142565b6001600360008573ffffffffffffffffffffffffffffffffffffffff1673ffffffffffffffffffffffffffffffffffffffff16815260200190815260200160002060008282546116179190612b10565b925050819055506001600360008473ffffffffffffffffffffffffffffffffffffffff1673ffffffffffffffffffffffffffffffffffffffff168152602001908152602001600020600082825461166e9190612a89565b92505081905550816002600083815260200190815260200160002060006101000a81548173ffffffffffffffffffffffffffffffffffffffff021916908373ffffffffffffffffffffffffffffffffffffffff160217905550808273ffffffffffffffffffffffffffffffffffffffff168473ffffffffffffffffffffffffffffffffffffffff167fddf252ad1be2c89b69c2b068fc378daa952ba7f163c4a11628f55a4df523b3ef60405160405180910390a4505050565b6000600660009054906101000a900473ffffffffffffffffffffffffffffffffffffffff16905081600660006101000a81548173ffffffffffffffffffffffffffffffffffffffff021916908373ffffffffffffffffffffffffffffffffffffffff1602179055508173ffffffffffffffffffffffffffffffffffffffff168173ffffffffffffffffffffffffffffffffffffffff167f8be0079c531659141344cd1fd0a4f28419497f9722a3daafe3b4186f6b6457e060405160405180910390a35050565b6117f88484846114cb565b61180484848484611a8d565b611843576040517f08c379a000000000000000000000000000000000000000000000000000000000815260040161183a90612791565b60405180910390fd5b50505050565b6060600a805461185890612bfa565b80601f016020809104026020016040519081016040528092919081815260200182805461188490612bfa565b80156118d15780601f106118a6576101008083540402835291602001916118d1565b820191906000526020600020905b8154815290600101906020018083116118b457829003601f168201915b5050505050905090565b60606000821415611923576040518060400160405280600181526020017f30000000000000000000000000000000000000000000000000000000000000008152509050611a83565b600082905060005b6000821461195557808061193e90612c2c565b915050600a8261194e9190612adf565b915061192b565b60008167ffffffffffffffff811115611997577f4e487b7100000000000000000000000000000000000000000000000000000000600052604160045260246000fd5b6040519080825280601f01601f1916602001820160405280156119c95781602001600182028036833780820191505090505b5090505b60008514611a7c576001826119e29190612b10565b9150600a856119f19190612c75565b60306119fd9190612a89565b60f81b818381518110611a39577f4e487b7100000000000000000000000000000000000000000000000000000000600052603260045260246000fd5b60200101907effffffffffffffffffffffffffffffffffffffffffffffffffffffffffffff1916908160001a905350600a85611a759190612adf565b94506119cd565b8093505050505b919050565b505050565b6000611aae8473ffffffffffffffffffffffffffffffffffffffff16611c24565b15611c17578373ffffffffffffffffffffffffffffffffffffffff1663150b7a02611ad761113a565b8786866040518563ffffffff1660e01b8152600401611af994939291906126c6565b602060405180830381600087803b158015611b1357600080fd5b505af1925050508015611b4457506040513d601f19601f82011682018060405250810190611b419190611ed8565b60015b611bc7573d8060008114611b74576040519150601f19603f3d011682016040523d82523d6000602084013e611b79565b606091505b50600081511415611bbf576040517f08c379a0000000000000000000000000000000000000000000000000000000008152600401611bb690612791565b60405180910390fd5b805181602001fd5b63150b7a0260e01b7bffffffffffffffffffffffffffffffffffffffffffffffffffffffff1916817bffffffffffffffffffffffffffffffffffffffffffffffffffffffff191614915050611c1c565b600190505b949350505050565b600080823b905060008111915050919050565b6000611c4a611c45846129dd565b6129ac565b905082815260208101848484011115611c6257600080fd5b611c6d848285612bb8565b509392505050565b600081359050611c8481612d73565b92915050565b600081359050611c9981612d8a565b92915050565b600081359050611cae81612da1565b92915050565b600081519050611cc381612da1565b92915050565b600082601f830112611cda57600080fd5b8135611cea848260208601611c37565b91505092915050565b600081359050611d0281612db8565b92915050565b600060208284031215611d1a57600080fd5b6000611d2884828501611c75565b91505092915050565b60008060408385031215611d4457600080fd5b6000611d5285828601611c75565b9250506020611d6385828601611c75565b9150509250929050565b600080600060608486031215611d8257600080fd5b6000611d9086828701611c75565b9350506020611da186828701611c75565b9250506040611db286828701611cf3565b9150509250925092565b60008060008060808587031215611dd257600080fd5b6000611de087828801611c75565b9450506020611df187828801611c75565b9350506040611e0287828801611cf3565b925050606085013567ffffffffffffffff811115611e1f57600080fd5b611e2b87828801611cc9565b91505092959194509250565b60008060408385031215611e4a57600080fd5b6000611e5885828601611c75565b9250506020611e6985828601611c8a565b9150509250929050565b60008060408385031215611e8657600080fd5b6000611e9485828601611c75565b9250506020611ea585828601611cf3565b9150509250929050565b600060208284031215611ec157600080fd5b6000611ecf84828501611c9f565b91505092915050565b600060208284031215611eea57600080fd5b6000611ef884828501611cb4565b91505092915050565b600060208284031215611f1357600080fd5b6000611f2184828501611cf3565b91505092915050565b6000611f368383612669565b60208301905092915050565b611f4b81612b44565b82525050565b6000611f5c82612a1d565b611f668185612a4b565b9350611f7183612a0d565b8060005b83811015611fa2578151611f898882611f2a565b9750611f9483612a3e565b925050600181019050611f75565b5085935050505092915050565b611fb881612b56565b82525050565b6000611fc982612a28565b611fd38185612a5c565b9350611fe3818560208601612bc7565b611fec81612d62565b840191505092915050565b600061200282612a33565b61200c8185612a6d565b935061201c818560208601612bc7565b61202581612d62565b840191505092915050565b600061203b82612a33565b6120458185612a7e565b9350612055818560208601612bc7565b80840191505092915050565b600061206e602e83612a6d565b91507f4552433732314d657461646174613a2055524920717565727920666f72206e6f60008301527f6e6578697374656e20746f6b656e0000000000000000000000000000000000006020830152604082019050919050565b60006120d4603283612a6d565b91507f4552433732313a207472616e7366657220746f206e6f6e20455243373231526560008301527f63656976657220696d706c656d656e74657200000000000000000000000000006020830152604082019050919050565b600061213a602683612a6d565b91507f4f776e61626c653a206e6577206f776e657220697320746865207a65726f206160008301527f64647265737300000000000000000000000000000000000000000000000000006020830152604082019050919050565b60006121a0601c83612a6d565b91507f4552433732313a20746f6b656e20616c7265616479206d696e746564000000006000830152602082019050919050565b60006121e0602483612a6d565b91507f4552433732313a207472616e7366657220746f20746865207a65726f2061646460008301527f72657373000000000000000000000000000000000000000000000000000000006020830152604082019050919050565b6000612246601983612a6d565b91507f4552433732313a20617070726f766520746f2063616c6c6572000000000000006000830152602082019050919050565b6000612286602c83612a6d565b91507f4552433732313a206f70657261746f7220717565727920666f72206e6f6e657860008301527f697374656e7420746f6b656e00000000000000000000000000000000000000006020830152604082019050919050565b60006122ec603883612a6d565b91507f4552433732313a20617070726f76652063616c6c6572206973206e6f74206f7760008301527f6e6572206e6f7220617070726f76656420666f7220616c6c00000000000000006020830152604082019050919050565b6000612352602a83612a6d565b91507f4552433732313a2062616c616e636520717565727920666f7220746865207a6560008301527f726f2061646472657373000000000000000000000000000000000000000000006020830152604082019050919050565b60006123b8602983612a6d565b91507f4552433732313a206f776e657220717565727920666f72206e6f6e657869737460008301527f656e7420746f6b656e00000000000000000000000000000000000000000000006020830152604082019050919050565b600061241e602083612a6d565b91507f4552433732313a206d696e7420746f20746865207a65726f20616464726573736000830152602082019050919050565b600061245e602c83612a6d565b91507f4552433732313a20617070726f76656420717565727920666f72206e6f6e657860008301527f697374656e7420746f6b656e00000000000000000000000000000000000000006020830152604082019050919050565b60006124c4602083612a6d565b91507f4f776e61626c653a2063616c6c6572206973206e6f7420746865206f776e65726000830152602082019050919050565b6000612504602983612a6d565b91507f4552433732313a207472616e73666572206f6620746f6b656e2074686174206960008301527f73206e6f74206f776e00000000000000000000000000000000000000000000006020830152604082019050919050565b600061256a602183612a6d565b91507f4552433732313a20617070726f76616c20746f2063757272656e74206f776e6560008301527f72000000000000000000000000000000000000000000000000000000000000006020830152604082019050919050565b60006125d0603183612a6d565b91507f4552433732313a207472616e736665722063616c6c6572206973206e6f74206f60008301527f776e6572206e6f7220617070726f7665640000000000000000000000000000006020830152604082019050919050565b6000612636601d83612a6d565b91507f73656e6465722063616e6e6f74206265207a65726f20616464726573730000006000830152602082019050919050565b61267281612bae565b82525050565b61268181612bae565b82525050565b60006126938285612030565b915061269f8284612030565b91508190509392505050565b60006020820190506126c06000830184611f42565b92915050565b60006080820190506126db6000830187611f42565b6126e86020830186611f42565b6126f56040830185612678565b81810360608301526127078184611fbe565b905095945050505050565b6000602082019050818103600083015261272c8184611f51565b905092915050565b60006020820190506127496000830184611faf565b92915050565b600060208201905081810360008301526127698184611ff7565b905092915050565b6000602082019050818103600083015261278a81612061565b9050919050565b600060208201905081810360008301526127aa816120c7565b9050919050565b600060208201905081810360008301526127ca8161212d565b9050919050565b600060208201905081810360008301526127ea81612193565b9050919050565b6000602082019050818103600083015261280a816121d3565b9050919050565b6000602082019050818103600083015261282a81612239565b9050919050565b6000602082019050818103600083015261284a81612279565b9050919050565b6000602082019050818103600083015261286a816122df565b9050919050565b6000602082019050818103600083015261288a81612345565b9050919050565b600060208201905081810360008301526128aa816123ab565b9050919050565b600060208201905081810360008301526128ca81612411565b9050919050565b600060208201905081810360008301526128ea81612451565b9050919050565b6000602082019050818103600083015261290a816124b7565b9050919050565b6000602082019050818103600083015261292a816124f7565b9050919050565b6000602082019050818103600083015261294a8161255d565b9050919050565b6000602082019050818103600083015261296a816125c3565b9050919050565b6000602082019050818103600083015261298a81612629565b9050919050565b60006020820190506129a66000830184612678565b92915050565b6000604051905081810181811067ffffffffffffffff821117156129d3576129d2612d33565b5b8060405250919050565b600067ffffffffffffffff8211156129f8576129f7612d33565b5b601f19601f8301169050602081019050919050565b6000819050602082019050919050565b600081519050919050565b600081519050919050565b600081519050919050565b6000602082019050919050565b600082825260208201905092915050565b600082825260208201905092915050565b600082825260208201905092915050565b600081905092915050565b6000612a9482612bae565b9150612a9f83612bae565b9250827fffffffffffffffffffffffffffffffffffffffffffffffffffffffffffffffff03821115612ad457612ad3612ca6565b5b828201905092915050565b6000612aea82612bae565b9150612af583612bae565b925082612b0557612b04612cd5565b5b828204905092915050565b6000612b1b82612bae565b9150612b2683612bae565b925082821015612b3957612b38612ca6565b5b828203905092915050565b6000612b4f82612b8e565b9050919050565b60008115159050919050565b60007fffffffff0000000000000000000000000000000000000000000000000000000082169050919050565b600073ffffffffffffffffffffffffffffffffffffffff82169050919050565b6000819050919050565b82818337600083830152505050565b60005b83811015612be5578082015181840152602081019050612bca565b83811115612bf4576000848401525b50505050565b60006002820490506001821680612c1257607f821691505b60208210811415612c2657612c25612d04565b5b50919050565b6000612c3782612bae565b91507fffffffffffffffffffffffffffffffffffffffffffffffffffffffffffffffff821415612c6a57612c69612ca6565b5b600182019050919050565b6000612c8082612bae565b9150612c8b83612bae565b925082612c9b57612c9a612cd5565b5b828206905092915050565b7f4e487b7100000000000000000000000000000000000000000000000000000000600052601160045260246000fd5b7f4e487b7100000000000000000000000000000000000000000000000000000000600052601260045260246000fd5b7f4e487b7100000000000000000000000000000000000000000000000000000000600052602260045260246000fd5b7f4e487b7100000000000000000000000000000000000000000000000000000000600052604160045260246000fd5b6000601f19601f8301169050919050565b612d7c81612b44565b8114612d8757600080fd5b50565b612d9381612b56565b8114612d9e57600080fd5b50565b612daa81612b62565b8114612db557600080fd5b50565b612dc181612bae565b8114612dcc57600080fd5b5056fea26469706673582212200c83c8e3cab72095350af975ca88756f2700dd9bd5dd4732a4924173c8eb182f64736f6c6343000800003368747470733a2f2f6170692e6f7074696d6174652e776f726c642f6765745f6e66743f746f6b656e5f69643d",
  "immutableReferences": {},
  "source": "//SPDX-License-Identifier: Unlicensed\r\npragma solidity ^0.8.0;\r\n\r\nimport \"@openzeppelin/contracts/token/ERC721/ERC721.sol\";\r\nimport \"@openzeppelin/contracts/utils/Counters.sol\";\r\nimport \"@openzeppelin/contracts/access/Ownable.sol\";\r\n\r\ncontract NFTERC721 is ERC721, Ownable {\r\n  using Strings for uint256;\r\n  using Counters for Counters.Counter;\r\n  Counters.Counter private tokenIds;\r\n  \r\n  mapping(uint256 => string) private _tokenURIs;\r\n  mapping(address => uint256[]) ownerTokens;\r\n  \r\n  string private _baseURIextended;\r\n  \r\n  constructor(\r\n  \r\n      )\r\n      ERC721\r\n      (\r\n         \"Q4\", \"$Q\"\r\n      ){\r\n          _baseURIextended = \"https://api.optimate.world/get_nft?token_id=\";\r\n      }\r\n  \r\n  function _baseURI() internal view virtual override returns (string memory){\r\n      return _baseURIextended;\r\n  }\r\n  \r\n  function tokenURI(uint256 tokenId) public view virtual override returns(string memory){\r\n      require(_exists(tokenId), \"ERC721Metadata: URI query for nonexisten token\");\r\n      string memory _tokenURI = _tokenURIs[tokenId];\r\n      string memory base = _baseURI();\r\n      \r\n      if(bytes(_tokenURI).length > 0) {\r\n          return string(abi.encodePacked(base,_tokenURI));\r\n      }\r\n      \r\n      return string(abi.encodePacked(base, tokenId.toString()));\r\n      \r\n  }\r\n  \r\n  function mintNFT() public{\r\n      require(msg.sender != address(0),\"sender cannot be zero address\");\r\n      \r\n      uint256 newTokenId =  tokenIds.current();\r\n      _mint(msg.sender, newTokenId);\r\n      tokenURI(newTokenId);\r\n      ownerTokens[msg.sender].push(newTokenId);\r\n      tokenIds.increment();\r\n      \r\n  }\r\n  \r\n  function totalSupply() external view returns(uint256) {\r\n      return tokenIds.current();\r\n  }\r\n  \r\n  function tokensOfOwner(address _owner) public view returns(uint256[] memory){\r\n      return ownerTokens[_owner];\r\n  }\r\n  \r\n  \r\n  \r\n  \r\n}\r\n",
  "sourcePath": "C:/PIAIC_Classes/Q4/nft-full-package/contracts/NFTERC721.sol",
  "compiler": {
    "name": "solc",
    "version": "0.8.0+commit.c7dfd78e.Emscripten.clang"
  },
  "schemaVersion": "3.4.1",
  "updatedAt": "2021-11-07T10:05:16.821Z",
  "networkType": "ethereum",
  "devdoc": {
    "kind": "dev",
    "methods": {
      "approve(address,uint256)": {
        "details": "See {IERC721-approve}."
      },
      "balanceOf(address)": {
        "details": "See {IERC721-balanceOf}."
      },
      "getApproved(uint256)": {
        "details": "See {IERC721-getApproved}."
      },
      "isApprovedForAll(address,address)": {
        "details": "See {IERC721-isApprovedForAll}."
      },
      "name()": {
        "details": "See {IERC721Metadata-name}."
      },
      "owner()": {
        "details": "Returns the address of the current owner."
      },
      "ownerOf(uint256)": {
        "details": "See {IERC721-ownerOf}."
      },
      "renounceOwnership()": {
        "details": "Leaves the contract without owner. It will not be possible to call `onlyOwner` functions anymore. Can only be called by the current owner. NOTE: Renouncing ownership will leave the contract without an owner, thereby removing any functionality that is only available to the owner."
      },
      "safeTransferFrom(address,address,uint256)": {
        "details": "See {IERC721-safeTransferFrom}."
      },
      "safeTransferFrom(address,address,uint256,bytes)": {
        "details": "See {IERC721-safeTransferFrom}."
      },
      "setApprovalForAll(address,bool)": {
        "details": "See {IERC721-setApprovalForAll}."
      },
      "supportsInterface(bytes4)": {
        "details": "See {IERC165-supportsInterface}."
      },
      "symbol()": {
        "details": "See {IERC721Metadata-symbol}."
      },
      "tokenURI(uint256)": {
        "details": "See {IERC721Metadata-tokenURI}."
      },
      "transferFrom(address,address,uint256)": {
        "details": "See {IERC721-transferFrom}."
      },
      "transferOwnership(address)": {
        "details": "Transfers ownership of the contract to a new account (`newOwner`). Can only be called by the current owner."
      }
    },
    "version": 1
  },
  "userdoc": {
    "kind": "user",
    "methods": {},
    "version": 1
  }
}